:020000040000FA
:10000000E006002021020000250C0000270C000063
:1000100000000000000000000000000000000000E0
:100020000000000000000000000000002F0C000095
:100030000000000000000000330C0000350C000040
:10004000012900000B290000152900001F290000CC
:100050003302000000000000151A0000DF19000044
:100060003302000000000000330200000000000026
:100070009B1D000000000000D72700003302000095
:1000800033020000000000003302000033020000D1
:100090000000000033020000EF2A0000772A000071
:1000A000452600003302000033020000000000007B
:1000B000330200003302000033020000330200006C
:1000C0000348854604F070F900480047091600000F
:1000D000E00600204949484808624848484A4038F4
:1000E0000262454A521E0A62002101604160821587
:1000F0008260C16001617047F8B5404D403D686A5B
:10010000424B0007000F3F493F4F404E2033404CC9
:10011000012808D002284FD00121C90304283FD06C
:1001200008283BD148E0A86A32880005000D120576
:10013000120D824240D01A881205120D82423BD025
:1001400072881205120D824204D05A881205120DCF
:10015000824201D12F4833E0B2881205120D82424B
:1001600004D09A881205120D824201D12A4827E054
:10017000F2881205120D824204D0DA881205120D9F
:10018000824201D125481BE032891205120D8242BC
:1001900004D01A891205120D82420DD1276010E099
:1001A000286B328AC0B2D205D20D824204D01A8A9C
:1001B000D205D20D824201D1216002E04B204002E3
:1001C000206028680006000E06D02868C1B22068AA
:1001D000400803F047FB00E02068606068680006A4
:1001E000000E06D06868C1B26068400803F03AFBB0
:1001F00000E06068A060F8BD9966AA554000024022
:100200000100695A00366E0100093D00A000001887
:1002100000000020408651010024F40000127A0002
:100220000448804704480047FEE7FEE7FEE7FEE794
:10023000FEE7FEE7D5000000C100000070B5012216
:10024000824D54032146284600F0D4FE0022214668
:10025000284600F0CFFE70BD10B502687F231B0159
:100260009A4318C90968234311430B43036010BD27
:100270000021016081604160704710B54268D30A77
:1002800014C9DB0222430C681C432243426082688B
:100290006F4B1A404B6889680B431343836010BD52
:1002A0000021016041608160C160016170470029E7
:1002B000016802D00122114301E0490849000160B0
:1002C000704730B5046807252D02AC43046004680C
:1002D0000C430460816801242404A1438160816887
:1002E000114381608168FF2212029143816081681D
:1002F0001943816030BD01680222114301607047DB
:10030000014609680020890700D5012070470122B5
:1003100092020029416801D0114300E091434160FD
:100320007047002A826801D00A4300E08A43826055
:1003300070470122D2030029016801D0114300E077
:10034000914301607047012292020029416801D067
:10035000914300E0114341607047C06A80B270472A
:1003600000290DD0CA1FF93A08D0FF3A013A09D046
:1003700003221202914207D18069704700697047D9
:10038000C06870474069704701229202914201D1D2
:10039000C069704705221202914201D1006A70477C
:1003A00003225202914201D1406A70470722120291
:1003B000914201D1806A704700207047416300205C
:1003C0007047816300207047002A426801D00A43C9
:1003D00000E08A4342600020704742681F235B01AF
:1003E0009A43520952010A4342607047002A426C04
:1003F00001D00A4300E08A43426470470122D202DE
:100400000029416801D0114300E0914341607047E9
:100410000122D2030029416801D0114300E0914339
:1004200041607047006B70470246D26C00200A4260
:1004300000D0012070470246126D00200A4200D011
:1004400001207047826C0A438264704700000240BA
:10045000FF00FEFF10B504460420C04301F0B7F8CA
:10046000A0052749000E7D220870D2005043488025
:1004700010BD002814D02249097848432149486119
:1004800000238B6108690122104308610869C207D3
:1004900001D0C003FAD508694008400008618B61AB
:1004A0007047002814D016494988484315494861C7
:1004B00000238B6108690122104308610869C207A3
:1004C00001D0C003FAD508694008400008618B617B
:1004D000704770B51926B601314603F0C3F9C4B2AE
:1004E0000D4604E03046FFF7DCFF641EE4B2002C4A
:1004F000F8D1002D02D02846FFF7D3FF70BD0000D1
:100500000C00002000E000E08B78002B036A01D093
:10051000134300E093430362CB78002B436A01D07E
:10052000134300E0934343620B79002B836A01D0AD
:10053000134300E0934383624B78002BC36901D0DF
:10054000134300E09343C36109780029016901D096
:10055000114300E09143016170470000F0B50125AF
:1005600072B60126F6030023E34AE449E44CB042A4
:1005700008D2CA60CC600C69860A0120B0400443EE
:100580000C611DE001273F04B84209D2CA60CC606B
:100590004C69801B860A0120B04004434C610FE087
:1005A000401C01D00220F0BDCA60CC600869002068
:1005B000C0430861CA60CB60CA60CC604C694861C6
:1005C000CA60CB6062B62846F0BDF0B5012572B6B0
:1005D0000126F6030023C84AC849C94CB04208D2D4
:1005E000CA60CC600C69860A0120B04084430C616B
:1005F0001BE001273F04B84209D2CA60CC604C69B5
:10060000801B860A0120B04084434C610DE0401CF1
:1006100001D00220F0BDCA60CC6008690B61CA60DD
:10062000CB60CA60CC6048694B61CA60CB6062B67F
:100630002846F0BDB14904200968490700D50320C8
:10064000704708B5042069460870FFF7F3FF694654
:10065000087008780328F8D0087808BDF0B5064679
:10066000FFF7EFFF3046FFF779FF72B6A24DA34CBC
:10067000E560A348E0602068000A0002801C20605A
:10068000A0483060E5600027E76062B6FFF7D9FF59
:1006900084463046FFF799FF72B6E5609848E060FF
:1006A0002068000A00022060E560E76062B66046EC
:1006B000F0BDF0B5FFF7C5FF0020C043FFF74EFFC8
:1006C00072B68D4D8D4CE5608D4EE6602068000A57
:1006D0000002C01C206001218A4849030860E560CF
:1006E0000027E76062B6FFF7ACFF84460020C043F6
:1006F000FFF76BFF72B6E560E6602068000A000253
:100700002060E560E76062B66046F0BDF0B50F4678
:100710000546FFF796FF2846FFF720FF72B6764C96
:10072000764AD460764ED6601068000A0002401CFB
:1007300010602F60D4600027D76062B6FFF781FF9A
:10074000844672B6D460D6601068000A0002106059
:10075000D460D76062B62846FFF737FF6046F0BD29
:10076000F0B50F460546FFF76CFF2846FFF7F6FE8B
:1007700072B6614C614AD460614ED6601068000A5E
:100780000002401C10602F80D4600027D76062B642
:10079000FFF757FF844672B6D460D6601068000A2F
:1007A00000021060D460D76062B62846FFF70DFFE4
:1007B0006046F0BDF0B50F460546FFF742FF2846FC
:1007C000FFF7CCFE72B64C4C4C4AD4604C4ED6600F
:1007D0001068000A0002401C10602F70D4600027CF
:1007E000D76062B6FFF72DFF844672B6D460D6603C
:1007F0001068000A00021060D460D76062B6284614
:10080000FFF7E3FE6046F0BDF0B58446FFF719FF41
:1008100072B6394C394AD460394DD5601068000A37
:1008200000021060D4600026D660D460D5601168E4
:10083000022319431160334957047960D460D660AC
:1008400062B6FFF7FEFE72B6D460D5601168090A81
:1008500009021160D460D66062B6FFF7F2FE72B68C
:10086000D460D5601168090A09021160D460D660AD
:10087000D460D560116801231943116060460128D6
:1008800011D021487860D460D66062B6FFF7D9FEF7
:1008900072B6D460D5601168090A09021160D4608B
:1008A000D66062B6F0BD1848401EEBE710B5134A9B
:1008B000114BD360124CD4600029116801D0014360
:1008C00000E081431160D3600020D06010BD0B4A6E
:1008D0000146526800200A4200D0012070470749B3
:1008E000054ACA60064BCB608B6883438B60CA6045
:1008F0000020C860704700005A5A000000040240FF
:10090000A5A50000AAAA5555FFFFFF7F70B5704945
:10091000704C884202D10122150604E06E498842DB
:100920000BD1012255062946204600F063FB002228
:100930002946204600F05EFB70BD6849884202D11E
:1009400001229506EFE766498842F5D10122D506D6
:10095000E9E75F490020403188605F4940318860A5
:100960005E49403188605E49403188607047F0B52B
:10097000002201252B460C6893401C409C422AD142
:10098000846C97000F26BE40B44384640C79012C1C
:1009900004D0022C02D0002C0FD011E004689C433C
:1009A000046004681C43046044689C4344604368DA
:1009B0008C7994402343436002E004689C430460C4
:1009C000C46B530003269E40B443C463CC799C405F
:1009D000C36B1C43C463521C082ACBD3F0BDFF2158
:1009E00001600021017141718171C171704702463E
:1009F000D26800200A4200D001207047C068C0B20F
:100A00007047FF2201320029416B01D0114300E001
:100A1000914341637047002A426B01D00A4300E0D2
:100A20008A434263704710220029816B01D0114331
:100A300000E0914381637047826B12091201826367
:100A4000826B0A43826370470246926800200A4222
:100A500000D0012070478068C0B27047C162704703
:100A600001637047002A01D0C1627047016370477B
:100A70008160704710B5C36B490003248C40A343C9
:100A8000C363C36B8A401343C36310BD01238B4010
:100A9000416C002A02D09943416470471943FBE737
:100AA00010B5836C0F2494409200A34391401943E6
:100AB000816410BD10B54907C90E846C8A400F23AC
:100AC0008B409C438464816C1143816410BD0000A1
:100AD00000100240000002400014024000180240D2
:100AE000001C024010B54C4C01220421204600F0AD
:100AF00081FA00220421204600F07CFA10BDF8B5EE
:100B000004460D46444800F0B1FA7D27FF003946FF
:100B100002F0A8FE06463946286802F0A3FEC1008E
:100B2000701A02F09FFEC0B2A0823C492868884239
:100B3000208802D2FE21084001E0012108432080E4
:100B40002188A8882A89104308432080A88844283F
:100B500003D1E888698908432081F8BD30490160E4
:100B6000442181800021C1800181012141817047A0
:100B700040220029018801D0114300E09143018007
:100B8000704720220029018A05D0012319430182E0
:100B90000188114304E0490849000182018811409D
:100BA0000180704720220029018801D0114300E014
:100BB00091430180704710220029018801D0114320
:100BC00000E091430180704704220029018801D090
:100BD000114300E09143018070470289FE234908D8
:100BE0001A40490011430181704781807047808815
:100BF000C0B27047002A02D00122114301E0490827
:100C000049008180704708220029018801D01143E2
:100C100000E091430180704700000240400D030056
:100C2000A08601007047FEE7FEE7FEE7FEE770479B
:100C30007047704702480068002800D0004770479E
:100C40001000002081617047816070470129416870
:100C500003D0490849004160704701221143FAE777
:100C6000C0687047AA210160704755210160704734
:100C70000246126900200A4200D001207047022279
:100C80000029416801D0114300E091434160704761
:100C90000121416170470000FA4881684909490112
:100CA0008160C168490D4905C160704710B5F64AB9
:100CB0001388F64C1B051B0D1B19A40DA34201D371
:100CC000F14A2032F24BC9181CD0C91818D0F14B88
:100CD000C91806D0F04BD94201D1118802E0118920
:100CE00000E051880905090D0A03520F072A06D0B2
:100CF000EA4AEB4B03660A438262591E016610BD45
:100D00009188EFE7D188EDE7DF4A128AD205D20D4C
:100D1000513AFF2A02D2DC4A103201E0DA4A30327C
:100D20004B235B0299420FD19188DC4BC905DC4A09
:100D3000C90D0266026B520A520213430B4303634E
:100D4000D749491E016670471188EEE7D44A02660A
:100D5000C26A120912010A43D0490A43C262D04949
:100D6000491E01667047CE4A0266426B12091201A3
:100D70000A43CA490A434263C949491E016670478A
:100D800018B500210524240301231B030091816A67
:100D9000009A1940521C0092A24201D09942F6D109
:100DA000994201D1012018BD002018BD18B50022BC
:100DB0000092BB4A0266C26A30239A430A43B7498B
:100DC0000A43C262402405221203C16A009B2140EB
:100DD0005B1C0093934202D04029F6D107E04029E2
:100DE00005D00021AE4A521E0266084618BD0121F8
:100DF000F8E718B500220092A94A0266026B0323A5
:100E00009B029A430A43A5490A430263052424032B
:100E100001231B03016B009A1940521C0092A2424D
:100E200001D09942F6D1994201D1012100E000217F
:100E30009B4A521E0266084618BD18B50021009153
:100E400097490166402305242403416B009A194009
:100E5000521C0092A24202D04029F6D107E040295C
:100E600005D000218E4A521E0266084618BD012197
:100E7000F8E710B54B684A699B021A430B688C6807
:100E8000DB02640223431A43CB6809691B021A433D
:100E900009010A4381490A43814901664263491EA7
:100EA000016610BD7E4A02660029416B02D07D4A70
:100EB000114304E0794A11430122D2029143416374
:100EC0007749491E01667047754A02668163511E63
:100ED00001667047C36B5B0E5B06C363C36B090699
:100EE0000B43C363C16B1143C1637047C36B0122E2
:100EF00052069343C3630029C16B01D0114300E044
:100F00009143C163704730B5036A446B634D9BB234
:100F1000A4B22B432C43012906D002290BD004296B
:100F200009D008290DD013E0002A01D0012104E0E6
:100F30005B085B000CE0002A01D00B4308E08B4308
:100F400006E0FF210131002A01D00C4300E08C4370
:100F50005349016603624463491E016630BD4F4A2E
:100F600011434F4A02664162511E01667047026991
:100F700007231B029A430A43026170470269012357
:100F80001B03002901D01A4300E09A430261704715
:100F90000269120A12020A4302617047406A00079E
:100FA000000F704710B501600068C1B23E4800688C
:100FB000400802F057FC3D49086010BD10B5416083
:100FC0004068C1B239480068400802F04BFC38491B
:100FD000086010BD002A826801D00A4300E08A43FD
:100FE00082607047002AC26801D00A4300E08A4349
:100FF000C26070472A4B0366002A426C01D00A4344
:1010000000E08A4342642649491E01667047244A2B
:101010000266002902D02149491C00E01F49816471
:101020001F49491E0166704730B51D4D0B466D1EA8
:101030002C462B438C43691C0166002A01D0836136
:1010400000E08461056630BD0246D26900200A4294
:1010500000D001207047114A0A4311490166026419
:10106000491E0166704710480068704710B5054971
:101070004A680D48002A006803D04008496802F019
:10108000F1FB10BD00000240A0000018FFF4FFFFBC
:1010900000EE85FFC09DA2FF4050E3FF0000695AAB
:1010A0009966AA550008695A000000200400002033
:1010B0000800002010B5424C012240212046FFF7D5
:1010C00099FF002240212046FFF794FF10BD30B564
:1010D00002680523DB011A4018C94D6823438C6858
:1010E0002C4323430C682343CC68096923430B43F7
:1010F0001343036030BD0021FF2201328161826011
:101100004160D10001604021C1600821416110218E
:101110000161704780220029016801D0114300E07D
:10112000914301607047012252020029016801D0F9
:10113000114300E0914301607047202200290168BB
:1011400001D0114300E09143016070470268FF2322
:1011500001339A43026002680A43026070470268E2
:101160000123DB029A4302600268C9430A4302601A
:1011700070470268D208D200026002680A43026027
:10118000704700684007400F7047416081617047B9
:101190004068704781607047806870470246D26837
:1011A00000200A4200D00120704702461269002048
:1011B0000A4200D001207047C907C90F416170473A
:1011C0000000024010B501218907BA4C884207D1BE
:1011D000012211462046FFF70DFF0022012109E000
:1011E000B549884209D1012202212046FFF702FFBA
:1011F000002202212046FFF7FDFE10BDF8B504468F
:10120000006815460E46C0218843206020680121F1
:10121000490288432060A94900230B609079002887
:1012200012D0022813D0012801D003280ED1226841
:1012300080010243226020682A7952021043206014
:10124000A87903280FD010E020682060F8BD20683E
:1012500080221043206020682A79520210432060C7
:10126000A8680860F8BDA8680860687901210904C9
:10127000002838D0924A9348964201D18A1003E060
:10128000914A964201D1D2130260A069012109045A
:101290008843A0612868400102F068FE044628796E
:1012A0000F46401C02F062FE054688480091006827
:1012B00002F05CFE2A46009B02F052FD22463B46AD
:1012C00002F0B6FD0022824B02F098FC02F008FF0B
:1012D00002F05AFE01B201200004401A7060B061B1
:1012E000E0203060F8BDA361A0690843A0612868D0
:1012F000400102F03BFE074600912879401C02F0B5
:1013000035FE054671480E46006802F02FFE2A465B
:10131000334602F025FD3A46009B02F089FD00228B
:101320006B4B02F06BFC02F0DBFE02F02DFEA169BC
:1013300000B2401E0843A061F8BD4B21C901016005
:1013400000218171816001714171704710B504689D
:1013500010239C4304605F4C012905D1002A03D06F
:1013600001681943016010BD01682140FAE7002AB5
:10137000026801D00A4300E08A430260704710B55A
:101380008468FF231B021C40846084680C438460D3
:10139000C1681940C160C1681143C16010BD10230C
:1013A000002A11D0897900290AD0012908D0022900
:1013B00001D0032903D1016949084900016170473F
:1013C000016819430160F6E7016819400160704740
:1013D000416070474068C0B2704708220029016828
:1013E00001D0114300E091430160704704220029BD
:1013F000016801D0114300E09143016070470A8801
:101400008B881A430B8989890B431A4391B2C161B6
:1014100070470029C16903D0FF220132114302E065
:101420002C4AF03A1140C16170470246126900200F
:101430000A4200D0012070474161704710B51F4A31
:1014400008241268244B012A02D0022A06D00DE09B
:1014500002685B5CA243DB07DB0F04E00268A24387
:101460005C5C0123A343DB0013430360416010BDB8
:1014700030B5124A00241268174BE443012A04D005
:10148000022A0CD04068087007E042680068D2B2B7
:101490009B5C4007C00F09E00A70002030BD426825
:1014A0000068D2B29B5C85080120A8438342F3D038
:1014B000204630BD0000024000040040140000201F
:1014C0000018004080E100E0001900400800002002
:1014D0000000E03FEFFF0000B851000070B50122AE
:1014E0001D4D140321462846FFF784FD00222146A6
:1014F0002846FFF77FFD70BD4268184B09021A406D
:1015000011434160704708B54268120A12020A434B
:101510000092426008BD0029816802D00122114377
:1015200001E049084900816070470160704701226D
:1015300012070029416801D0114300E09143416046
:1015400070470246D26800200A4200D0012070474E
:10155000012101617047000000000240FF0000F01F
:10156000204908432049C860704730B5C27801233C
:101570000178002A17D08C081C4AA400A21814680D
:101580008907C90EFF258D40AC438578AD072D0E28
:101590008D402C4314600078C106C90E8B40400971
:1015A0008000134906E0C806C00E83404809104970
:1015B000800080314018036030BD70470A4A00291E
:1015C000116901D0014300E0814311617047042299
:1015D00008490428086902D0904308617047104305
:1015E000FBE700000000FA0500ED00E000E400E089
:1015F00000E100E000E000E001B5009801E0401EDD
:1016000000900028FBD108BD874C012211462046DE
:10161000FFF779FC012204212046FFF774FC012228
:1016200051042046FFF7DEFC012204212046FFF78B
:10163000D9FC012251032046FFF7D4FC01220221EC
:101640002046FFF7CFFC012211462046FFF7CAFCD7
:10165000012240212046FFF7C5FC01221146204609
:10166000FFF7B8FC012202212046FFF7B3FC01225C
:1016700004212046FFF7AEFC012208212046FFF797
:10168000A9FC6A492046FFF711FB2046FFF778FBCB
:101690000128FAD1FEF730FD7D24E4002046FFF753
:1016A000ABFF1820FEF7D6FE00F0D6F800F0E0F908
:1016B00000F092FF01F068F800F01AFD01F0ACF8BC
:1016C00000F080FE00F03EFE002000F041FE2046CB
:1016D000FFF792FF56A002F079FE00F053FE00F0F3
:1016E00071FF002809D000F0A4FD002864D000207C
:1016F00000F06BFF00F0ACFC5EE000210A2001F07E
:101700000FFF002804D04F4801F003FC00F061FCFB
:101710000121642001F004FF00280ED001F08FFAAF
:10172000484801F03BFC01F0A5FA4749002801D0E8
:10173000002000E0012001F043FAFF200221FA30EE
:1017400001F0EEFE00280AD03E4801F0AEFC3D4814
:1017500001F060FD01F081FD3B4801F0D1FC032167
:10176000204601F0DDFE00280BD0364801F0B6FC23
:10177000344801F083FB01F028FD00F04FFD00F03C
:101780005EFD0621314801F0CBFE002803D02E4932
:101790002C4801F0A6FA00F02DFB002804D0072108
:1017A000002001F0BDFE07E00721294801F0B8FE46
:1017B000002801D000F0C5FC00F046FE00288ED1C4
:1017C0007D200421000101F0ABFE002887D001201C
:1017D00000F0FBFE83E710B5012211461248FFF727
:1017E00023FC10BD70B58EB0064601F002F8044629
:1017F0000D463021684602F022F97D22D2000023F6
:101800002046294602F058F80C900CA802F0C2F8C5
:10181000104A4169891841610169491C01610068E8
:1018200030600EB070BD00000000024000366E0156
:101830004D592041433130303320524553455421D6
:1018400000000000F31A0000571B0000E8FD000034
:1018500080EE36006C07000070B586B00024694643
:101860000C718C71402000900125784ECD714C7127
:101870003046FFF77CF869460D718C71202000908E
:10188000CC714C713046FFF772F8052206213046C4
:10189000FFF710F9052211463046FFF70BF9E1205A
:1018A0004002694602900D734C736A4C8D7302AA14
:1018B00067492046FFF7A2FC072069460875032008
:1018C0008875CD7505A8FFF750FE01221146204608
:1018D000FFF74DFD012202212046FFF748FD0122BE
:1018E00011462046FFF732FD06B070BD70B586B0D8
:1018F000002469460C718C71082000900125534E1C
:10190000CD714C713046FFF732F869460D718C711C
:1019100010200090CC714C713046FFF728F805225A
:1019200003213046FFF7C6F8052204213046FFF7B1
:10193000C1F84B20C001694602900D734C738D7342
:10194000AC0702AA44492046FFF758FC0620694626
:1019500008758D75CD7505A8FFF707FE01221146A4
:101960002046FFF704FD012202212046FFF7FFFC7D
:10197000012211462046FFF7E9FCB5E710B5FFF755
:1019800027FD364841780129FCD10021417010BD66
:10199000F8B515460E460746002404E0315D38468A
:1019A000FFF7ECFF641CAC42F8D3F8BD10B5044659
:1019B000C1B22848FFF70CFD28494A78012AFCD11A
:1019C00000204870204610BD10B524480178012938
:1019D000FCD1002101701F48FFF7FCFC10BD70B561
:1019E0001C480169012489071C4D002905DA416959
:1019F0000222114341616C7070BD0169C907FBD0BF
:101A0000416921434161FFF7E5FC1449891C0870D5
:101A10002C7070BD70B50120800701690124890711
:101A20000E4D002905DA41690222114341616C70B3
:101A300070BD0169C907FBD0416921434161FFF7CE
:101A4000C9FC0649891C08702C7070BD001C02403E
:101A50000019004000040040001800401800002059
:101A600001B5009801E0401E00900028FBD108BDA0
:101A700070B586B0012569468D7110200090002454
:101A8000D04ECC714C713046FEF771FF69468D71B6
:101A900020200090CC714C713046FEF768FF042284
:101AA00011463046FFF706F8042205213046FFF7BD
:101AB00001F869460C824C82C3480290402088811C
:101AC0005020C881C14C00212046FFF751F802A9DF
:101AD0002046FFF714F80C20694608758D75CD7502
:101AE00005A8FFF742FD01212046FFF741F806B0A7
:101AF00070BDF8B50C46B64F0121798000263946F5
:101B00003E80103908704A70B24D02206871AC6096
:101B1000EE70521C2A710121AC48FFF732F8788828
:101B20000128FDD0287920184670F8BD10B5A84CC2
:101B300000226280012222802246103A10705170E9
:101B4000A449022048710121A048FFF71AF8208813
:101B50000128FDD010BD70B59D4C00236380012588
:101B600025802546103D287004E0C85CEE185B1CFB
:101B70007070DBB29342F8D39648521C4271012137
:101B80009248FEF7FEFF20880128FDD070BDF8B511
:101B90008E4FB889082819D0B889102816D0B8896E
:101BA0008C4C8B4B0025103B894E6279217818288C
:101BB0002CD0B889202829D0B889282826D0B889DF
:101BC000302823D0B889F82810D010E034213846C6
:101BD000FFF70BF800213846FEF7E4FF00213846F6
:101BE000FEF7F2FF00213846FEF7E5FFF8BD0021C1
:101BF0003846FEF7D7FF00213846FEF7E5FF012102
:101C00003846FEF7D8FF35802570F8BD9142EED2F8
:101C1000595C3846FEF7E9FF2178491C2170D9E765
:101C2000F8B56A4DA88908283BD0A889694C684E48
:101C3000A1786278103E63798918182836D0AF8968
:101C40002846202F32D08589282D45D08789302FEE
:101C500042D005468089102852D0A889382854D00F
:101C6000A889402853D0A88948286BD0A889502833
:101C70006ED0A8892F460025103658287AD0B8890A
:101C8000F8280DD0758000213846FEF78BFF002123
:101C90003846FEF799FF01213846FEF78CFF657044
:101CA000F8BD34212846FEF7A0FF08E09A42F7D29B
:101CB000715C2846FEF799FF6178491C617000212C
:101CC0002846FEF76FFF00212846FEF77DFF002122
:101CD0002846FEF770FFF8BD9A420FD2715C0546A8
:101CE000FEF783FF61782846491C61700021FEF7EA
:101CF00059FF00212846FEF767FFF8BD01211EE0CD
:101D000035212846FEF771FFE1E701210DE0E27879
:101D100021798A420DD2491E8A4201D1002100E078
:101D200001212846FEF750FF00212846FEF73AFF22
:101D3000CDE701212846FEF73EFF00212846FEF7A9
:101D400031FFF8BD01212846FEF72CFF0121BFE736
:101D50002846FEF74CFFE278A1688854E078401CE2
:101D6000C1B2E17020798142EBD2401E8142D7D1CD
:101D7000D4E7FFE73846FEF73AFFE278A1688854D7
:101D8000E0780121401CE0703846FEF714FF002186
:101D90003846FEF707FF758081E710B50C4C2088A8
:101DA000012801D1FFF7F3FE6088012801D1FFF778
:101DB00037FF06480188090703D50188F72211403B
:101DC000018010BD00140240204E0000000C0040B5
:101DD000A80000201C000020F848007B704710B5C8
:101DE000FFF7FAFFF549C9884843642101F03AFD3D
:101DF000C0B210BDF2480078C10901D0012070477F
:101E0000400601D50220704700207047F0B585B02C
:101E1000FFF7E2FF0C2148430A2101F023FD029065
:101E200000F0E7FCE74CE369A2691A4301D1E161E4
:101E3000A061A269E5690B46861AAB4101D3821AFB
:101E400001E0821A521EE16196B2A061FFF7D2FF53
:101E50000025002806D0DC48008800B202F060F8B7
:101E6000A06000E0A560304602F080F8009101908B
:101E700006460F46E168A068039001F0EBFD02F012
:101E8000F3F832463B4601F06BFF0022CF4B01F0E6
:101E9000CFFF06460F46606802F0E6F832463B4642
:101EA00001F0ACFE02F01CF960600398E06000F005
:101EB00014FF002819D00022C54B0099019801F0A9
:101EC0004FFF0022C34B01F04BFF0022C24B01F039
:101ED000AFFF06460F46606802F0C6F832463B4642
:101EE00001F08CFE02F0FCF860600022BB4B009910
:101EF000019801F035FF0022B94B01F099FF064629
:101F00000F46606802F0B0F832463B4601F076FEBC
:101F100002F0E6F860600090029802F027F80646AA
:101F20000F46009802F0A0F832463B4602F0C4F893
:101F300007D8A24965600888401C0880002005B0C9
:101F4000F0BD01223946D20751400F46606802F0C9
:101F50008BF832463B4602F09BF806D897496560FD
:101F60004888401C48800120E9E70220E7E7934ABF
:101F70001088642809D35188642906D364381080F6
:101F8000643951809088401C9080704795494888FA
:101F900000280FD0944A90420CD08888934A8749F1
:101FA000904201D3642003E0914A904202D800207D
:101FB000C880DCE7704710B5804C208901F0BBFF7A
:101FC00000F0D0F901F0F9FFC0B260812089E08013
:101FD00010BD10B5FFF71AFF7849002802D001287C
:101FE00008D00EE00889642801D3642000E0401C7A
:101FF000088104E00889002801D0401EF8E7FFF7B7
:10200000DAFFFFF7C3FF10BDF8B57D48794C7A4E73
:102010007A4D008801F08FFF07460146304601F0F7
:1020200072FD06463946204601F06DFD394601F045
:102030006AFD314601F00EFD294601F00BFD7149A4
:1020400001F09EFD7F21C905884200DD0846F8BDEC
:10205000FEB56D4C6D4EFFF78AFF584DAF88FFF708
:10206000D3FF0190384601F066FF074631460090E5
:1020700001F049FD394601F046FD394601F043FDC6
:10208000064600986249074601F03DFD394601F0D9
:102090003AFD07462146009801F035FD5D4901F003
:1020A000D9FC394601F0D6FC314601F0D3FC5A493F
:1020B00001F066FD019901F026FD01F07EFFC0B23E
:1020C000A881FEBD10B5FFF795FE3E4C2178002992
:1020D0000AD0002807D10F2007223849C00200F09B
:1020E00038FC0020207010BD0028FCD00120F9E74A
:1020F00010B50F2007223149C00200F065FC2F48BF
:10210000394AC3883221934200D1C1800389934266
:1021100000D101814389934200D14181818991425B
:1021200001D16421818103880021934200D1018083
:102130004388934200D141808388934200D18180BB
:1021400010BDF8B50023FFF755FE0022002834D15A
:10215000FB20C001C56823481F2480880A26A402EA
:1021600070432E012168761B0D016D1A002824D0C2
:10217000910061580F01791AB04201D364230BE03A
:10218000A84201D8002303E0814201D9134603E0AD
:10219000521CD2B2642AEBD90848C088984204D9AC
:1021A000C01AC0B200F0E2F805E0984205D2181A51
:1021B000C0B200F0E0F800F0CBF8F8BDB2000020AB
:1021C0007A000020280000208400002040775B4136
:1021D000008040C00000184040776B41000024C0E0
:1021E00040774B4110010020FFFF000014CD00009C
:1021F000C8AF000025DFB6B9637F993DD57811419E
:102200008800002000003041006051C630629FB954
:102210003D0A474020BCBE4C0024744916480022A9
:1022200016490270897941708270C27002714171E1
:10223000704710B50621104800F032F910BDF0B516
:102240000F4E87B0B08801F091FE04460D467088AD
:1022500001F08CFE02460B460A4808490088778C3C
:10226000C988F68800B2049105906946F0C1064815
:1022700002F0ACF807B0F0BD38000020B20000203A
:1022800010010020840000205853000006C07F2168
:10229000C905016041604849C3608160704770B5FD
:1022A000856804460168284601F02DFC2060284618
:1022B000616801F028FC294601F025FC216901F044
:1022C000C9FB606070BDF3B5044681B04068009002
:1022D000E5680146284601F016FC0646294601F04D
:1022E00012FC616901F0B6FB0146304601F048FC82
:1022F000276806463946284601F005FC029901F098
:10230000FEFB314601F0FFFB394601F0A3FB2060E4
:102310002946304601F0F7FB7F21C90501F0EFFBAC
:10232000009901F0F0FB6060FEBD0160704770B580
:102330000D460446FFF7B3FF29462046FFF7C3FFCB
:10234000206870BD7F22D2051C4B00211C489DE7F0
:1023500003467F221A48D2050021183096E701462D
:102360001748E4E7014616481830E0E70121C903A1
:102370008000085870470121C90380004018803050
:10238000806C704730B59BB06821684601F057FB00
:102390007F20C005FFF7DCFF01246D46204601F0D9
:1023A000CAFDFFF7DFFF01F008FE2855641CE4B208
:1023B000642CF3D91BB030BD0AD7233C0000204168
:1023C000C00000207CB50125684605710024847199
:1023D000302000906846C471274E447169463046EB
:1023E000FEF7C5FA10213046FEF73AFB20213046B1
:1023F000FEF736FB684605718471482000906846F8
:10240000C471447169463046FEF7B1FA68460571F9
:102410008471082000906846C471184D4471694663
:102420002846FEF7A4FA08212846FEF719FB68465D
:1024300004718471142000906846C4714471694627
:102440000F48FEF794FA7CBD10B504210C48FEF746
:10245000CEFA002800D0012010BD10B5064A002891
:1024600004D010211046FEF7F9FA10BD10211046D5
:10247000FEF7F6FA10BD00000018024000100240FE
:10248000001C024010B5524A002804D020211046FA
:10249000FEF7E6FA10BD20211046FEF7DFFA10BD68
:1024A000F3B54C4C0027607881B0002805D101209D
:1024B00060700821002001F033F8A078002506267E
:1024C000030001F0AAFF0A06111C28313C46596B93
:1024D000777D0020FFF7D6FF08213E2001F020F88D
:1024E00000286DD0012014E00120FFF7CBFF082168
:1024F000012001F015F8002862D0072058E00020E4
:10250000FFF7C0FF0821012001F00AF8002857D08A
:102510000320A07006E00120FFF7B4FF082103208C
:1025200012E0A67065704BE00020FFF7ABFF0821BA
:10253000032000F0F5FF002842D00520E9E7012044
:10254000FFF7A0FF0821012000F0EAFF0028E8D1F2
:1025500036E0E078411CC9B2E170082808D2607901
:10256000491E8840000601D50220D2E70420D0E7AA
:102570000720A070E57023E02079411CC9B22171C9
:10258000029A904206D2019840182038C07F6071AC
:10259000A67015E00820A070257111E00020FFF75B
:1025A00071FF0821132000F0BBFF002808D009208C
:1025B000A07005E00120FFF765FF65700127A57099
:1025C0003846FEBD034800787047024908707047DE
:1025D000001802404800002010B588B00020039089
:1025E00000900190029001208002069060200590EA
:1025F0000F2101200902C0025F4C0491079005A938
:102600002046FDF729FE69462046FDF736FE0F22DB
:1026100003215A48FEF74EFA012211462046FDF7E3
:10262000E5FE01212046FDF742FE08B010BD08B5C9
:1026300018206946087001208870C8706846FEF747
:1026400094FF08BD70B54C4C01212046FDF7F3FE08
:10265000012846D002212046FDF7EDFE012842D098
:1026600004212046FDF7E7FE01283ED00821204640
:10267000FDF7E1FE01283AD010212046FDF7DBFEF0
:10268000012836D020212046FDF7D5FE012832D082
:1026900040212046FDF7CFFE01282ED08021204684
:1026A000FDF7C9FE01282AD0A51529462046FDF7C9
:1026B000C2FE012825D0651529462046FDF7BBFE40
:1026C00001281ED0251529462046FDF7B4FE012815
:1026D00017D0E51429462046FDF7ADFE012810D09D
:1026E00013E001210EE002210CE004210AE00821A0
:1026F00008E0102106E0202104E0402102E08021D2
:1027000000E029462046FDF79DFE1D490120886016
:1027100070BD70B5184D04462846FDF7ECFD2846FF
:10272000FDF7EEFD0028FAD12846FDF716FE144904
:1027300080B24A88904200D948808A88904200D26C
:102740008880CA681018C8600A78521CD2B20A7011
:10275000122A0ED38A88801A4A88801A0003000C35
:10276000208000200870C8604880064888800120CA
:1027700070BD002070BD0000002C0040001C024015
:1027800050000020FF0F000010B588B0002010217D
:1027900005910790069040211C4C039002900491F3
:1027A000019001A92046FEF792FC19492046FEF748
:1027B000ECFC01212046FEF7C0FC0E2168460170AA
:1027C00001218170C170FEF7D0FE01212046FEF785
:1027D000A1FC08B010BD10B501210C48FEF7ECFCBF
:1027E0000C48002302684168521C59410260416054
:1027F00010BD084903C9704710B57D22D2000023DF
:1028000001F08AF8034A03C210BD0000001800401E
:102810003FA2FFFF6000002070B586B0032168462C
:10282000017401258574C57404A8FEF79EFE00247A
:10283000684604718471042000906846C5713E4E5C
:10284000447169463046FEF792F868460572847214
:10285000C47204734572042202A93046FDF754FE87
:1028600006B070BD4169354A51604169C90705D05C
:102870008169C90702D0C169012234E04169890731
:1028800005D58169890702D5C16902222BE041691A
:10289000490705D58169490702D5C169042222E0AB
:1028A0004169090705D58169090702D5C16908226F
:1028B00019E04169C90605D58169C90602D5C16912
:1028C000102210E04169890605D58169890602D583
:1028D000C169202207E04169490606D58169490698
:1028E00003D5C16940221143C1614169090606D57A
:1028F0008169090603D5C16980221143C16170470E
:102900000E49012008700E48ACE70C490120087000
:102910000C48A7E70949012008700B48A2E70749BE
:102920000120087004489DE708480169042211430A
:10293000016130BF70470000001C024068000020A9
:1029400000100240001402400018024000ED00E0B8
:102950007047F7B582B00546012000900320039E22
:10296000FDF7BDFF012080022C462F1805E0204610
:10297000FDF774FEFF34FF340234BC42F7D32C461B
:1029800001E02078641CBC42FBD304982F468000F1
:10299000441909E002CE3846FDF7B8FE042802D0FB
:1029A00017A001F013FD3F1DBC42F3D8039806E0C9
:1029B00002C82A68914201D0002100912D1DAC422D
:1029C000F6D8009805B0F0BD10B50123920012189A
:1029D00001E010C810C18242FBD8184610BD00B5F6
:1029E00085B01421684601F02AF80C4A0B48694664
:1029F000103208C8904208C1FBD305B000BD0000EA
:102A0000464C4153485F50726F6772616D576F72E9
:102A100064204641494C45440D0A0000F00000186E
:102A200038B5172069460870002088700120C870EA
:102A30006846FEF79AFD1B4C19492046FEF702F93D
:102A400001212046FEF702F900212046FEF717F982
:102A50004B2149022046FEF7F7F82046FEF705F91C
:102A60000F492046491EFEF7EDF838BD10B50D4858
:102A7000FEF7F8F810BD10B50A4C09492046FEF7DC
:102A8000E1F82046FEF704F905492046491EFEF705
:102A9000D9F8054901200860FEF79DFE10BD000031
:102AA0009966AA55002400407000002038B5164CE5
:102AB00014492046FEF720FD0F212046FEF723FD96
:102AC0002046FEF745FD1621684601700021817001
:102AD0000121C170FEF749FD01212046FEF71BFDD3
:102AE00038BD10B57F210848FEF71FFD10BD10B599
:102AF0000548FEF72DFDFFF7F4FF044901200860AB
:102B000010BD0000FFFF0000002000407400002006
:102B1000002800D1FEE7704770B503460020072566
:102B2000002915D00FE01C788022060603D5400648
:102B3000000E684001E04006000E144200D06840DC
:102B40005208F2D15B1C0A46491EC9B2002AEAD1DA
:102B500070BDFFB585B0002106460091019102913C
:102B600003913420694608700698487002211C467B
:102B7000174600206D460CE0102901D2012200E02A
:102B80000022002A1BD03A5C6A54491C401CC9B27E
:102B9000C0B2A042F0D3A01CC1B22846FFF7BCFFD0
:102BA000049022463946684600F030FF04982855C4
:102BB000641CE2B269460698B04709B0F0BDFEE772
:102BC00030B4FF4C0D46611E23780A78002806D0E9
:102BD000900701D5D0070FD13020034305E09007BF
:102BE00001D4D00708D0CF2003402370284601230A
:102BF00030BCF34A4021ACE730BC704770B5F14EB1
:102C0000F14CF24DF24900F07EFF314600F0B8FF82
:102C100001F02AFA02F0D8F801F062FA214600F039
:102C2000AFFF01467F24E405EA4800F013FF0146A8
:102C3000204600F0A5FF294600F05DFF70BD08B5F5
:102C40000020694608806846FFF763FD002810D021
:102C500068460088E0490A22091A504300F018FE2D
:102C600001F05EF9FFF7CAFF01F08EF9D4490D318A
:102C7000C88008BDF8B5D2480023401E0278841EE3
:102C800007460E370620D6090125217A385E002E28
:102C900009D03C2801DD257217E0002917D037281C
:102CA00013DA237213E0520606D54628F3DC002916
:102CB0000DD04128F5DB08E06328F2D12572C7A0CA
:102CC00001F084FB207A002801D00120F8BD00200B
:102CD000F8BDBB49C91EC8717047B948C01EC0794C
:102CE0007047FEB500260C4601960622C04901A891
:102CF000029600F08BFEB248BE4D401E0078C1091E
:102D0000E8791DD0BA492639CA88498C511A052953
:102D100016DD002804D1B8A001F058FB0120E871AD
:102D2000002201AD01200096AB5C6E46072B0FD947
:102D300031780646083B9E4031436E4631700DE0C7
:102D4000002804D0B4A001F041FB0020E871FEBDD2
:102D5000717806469E4031436E467170521CD2B265
:102D6000062AE1D30123324641212046FFF7F1FE36
:102D700068460178AFA001F029FB00AA0123422197
:102D800020460132FFF7E5FE68464178B1A001F028
:102D90001DFBFEBDFEB50E46B64903464868896870
:102DA000002715460191009001226C46384601A982
:102DB00098476846029701790172002D02D01020D1
:102DC000014301E0EF200140684601726946087A3C
:102DD00008710123221D00213046FFF7BAFEFEBD17
:102DE0001CB5A44A0346D1681269019200910122E0
:102DF000192001A99847684600794006400E01F065
:102E0000B5F89D4A9D4B00F0ABFF9D4A9D4B00F0ED
:102E1000F5FE01F065F91CBD70B500230DE05D0005
:102E2000445F002C00DA6442A600A419E617F60EEF
:102E3000341964115B1C4C53DBB29342EFD370BD69
:102E400078B500230BE05C00055B6E463580757835
:102E5000B5703578F57075885B1C0D53DBB2934205
:102E6000F1D378BD30B50D460446FFF755FE615DE0
:102E7000884201D1012030BD002030BD30B58BB07B
:102E8000044622216D4601A800F0D9FD7948202290
:102E90000068291D00904E20A04724216846FFF7B6
:102EA000E1FF00280BD0524910224639281DFFF7B8
:102EB000C7FF4F49102246390846FFF7ADFF0BB058
:102EC00030BD70B50D460021415E88010818FF38FD
:102ED0000A210E3800F0DCFC00B2288001F020F856
:102EE000FFF73DFA01F050F800B201F02BF80E4662
:102EF0000446654A654B00F033FF614A644B00F0BD
:102F000021FF2246334600F023FF01F06BF82880B2
:102F100070BD1CB5574A0346D16A126B01920091ED
:102F200002226C464C2001A9984706216846FFF70B
:102F300099FF00280AD0224901220931201DFFF7FC
:102F40007FFF1F4909310846FFF7BBFF1CBDFFB5D6
:102F500081B000241DE001986600855F0120C00358
:102F6000401B00F0DDFF0746284600F0D9FF04991A
:102F700000F0C9FD394600F003FEFFF73FFE01F007
:102F800073F802F0CBF801F051F80299641C8853F1
:102F9000E4B203988442DED305B0F0BD7FB50446A9
:102FA0003448694634302DC82DC12046FFF718FF3C
:102FB000054606226E46462001A9A047032269E085
:102FC0007B00002000401C4600B0564533938843E8
:102FD00000007A440FCF5B3BFF0F00000D0A5468DE
:102FE00065726D6973746F72204572726F72210021
:102FF00036010020780000200D0A5374617274209D
:1030000045787465726E616C2042616C616E6365B7
:1030100020210D0A000000000D0A53746F70204536
:10302000787465726E616C2042616C616E636520BC
:10303000210D0A000D0A42616C616E6365204365D3
:103040006C6C20506F7330203A20257820210D0AB7
:10305000000000000D0A42616C616E6365204365EB
:103060006C6C20506F7331203A20257820210D0A96
:1030700000000000B85200009A9999999999A93FC7
:103080003333333333331B40A835CD3B4ED1A13FCF
:1030900033D34740FE49301DFFF7D2FEFC492B4693
:1030A00003220846FFF753FF7FBD0EB5F9490EC94D
:1030B00002930192009103460322432001A99847FD
:1030C000F349684600791039087068464079491C10
:1030D000087068468079491C08700EBD1CB5ED4A21
:1030E0000346443A516992690192009101224020BD
:1030F00001A99847E649684600790D3908701CBD5A
:10310000F8B50646E24800240C380094E04D0078FB
:10311000103D00280BD0697A481C68720A2906D332
:103120006C7201236A4670213046FFF712FDD848C1
:103130000B38007800280CD0A87A411CA9720A2804
:1031400007D300AAAC720123712130460132FFF788
:1031500000FDF8BD10B50C46CF4903460020514391
:10316000185EC822504300F093FB208010BDF8B5D4
:103170009C46002305E05C00055B0D53D3545B1CAB
:10318000DBB26345F7D300246046401E009019E08F
:10319000634600201B1B5B1E9E460EE047007B180B
:1031A000CD5B5E88B54206D2CE535D801618155CA5
:1031B000777817547570401CC0B28645EEDC641CED
:1031C0000098E4B28442E3DBF8BD70B5B34A002551
:1031D0001646263E10462C461023B11D4638FFF7F2
:1031E000C6FFAF483080002041008919C9884A19BC
:1031F00095B2421E0B2A01D209198CB2401CC0B2F2
:103200001028F1D32001001B0B2100F02BFBB08014
:10321000758070BD1FB59F4904464439C869096A65
:1032200003919C4902904439486A896A01220191BC
:10323000009003A97020A04795496846007B0C398F
:1032400008700122712001A9A047684690490079C1
:103250000B39CF22104008701FBDF0B58C488F4D40
:103260000C3800788A4CC10612358E4F0026103C6F
:103270008BB0002908DA2C21684600F0E0FB684694
:10328000FEF7B0FA012209E041072ED52C2168464D
:1032900000F0D5FB6846FEF7A5FA0222A0790101ED
:1032A0006A544A199646D168059A1302049A1B0A71
:1032B000120613430A461946130A039A1B02D2B296
:1032C0001A433A401346029A1206120C1343764AE6
:1032D0001340019A12041A431302009A1B0A1206A1
:1032E0001A437346DA60996067E0C1072CD02C213D
:1032F000684600F0A4FB6846FEF774FAA079032242
:1033000001016A54059A49191302049A8E46C96844
:103310001B0A12061A430B0A03991B02C9B219436E
:1033200039400B4602990906090C0B435E490B40D4
:103330000199090419430B0200991B0A09060B4362
:103340007146CB608A6038E0410608D52C2168467A
:1033500000F075FB6846FEF745FA042209E0810695
:103360003ED52C21684600F06AFB6846FEF73AFA23
:103370000522A07901016A544A19059996460B0263
:103380000499D2681B0A09061943130A039A1B02FF
:10339000D2B21A433A401346029A1206120C134351
:1033A000414A1340019A12041A431302009A1B0A5D
:1033B000120613437246D3609160411CA1713228FA
:1033C00000D3A67132480B38007881062ED52C2107
:1033D000684600F034FB6846FEF704FA09212FE046
:1033E000810708D52C21684600F029FB6846FEF7C6
:1033F000F9F90622BDE7010708D52C21684600F03F
:103400001EFB6846FEF7EEF90722B2E7C009D9D0E5
:103410002C21684600F013FB6846FEF7E3F908220A
:103420003CE71B48103886710BB0F0BD810740D5D2
:103430002C21684600F003FB6846FEF7D3F90A2109
:103440001348103880790301E954059C5B19220266
:10345000049C120A2406D9682243039C090A090223
:10346000E4B22143029C39402406240C21430E4C33
:103470002140019C24042143009C0902090A2406DE
:103480009A602143D960024A411C103A91710DE0C3
:1034900088000020FC520000DE53000036010020AE
:1034A000DED50000FF00FFFFFFFF00FF3228B8D28B
:1034B000BAE7010708D52C21684600F0C0FA684633
:1034C000FEF790F90B21BBE7C10908D02C21684613
:1034D00000F0B5FA6846FEF785F90C21B0E7C107A0
:1034E00008D02C21684600F0AAFA6846FEF77AF95F
:1034F0000D21A5E7410708D52C21684600F09FFA69
:103500006846FEF76FF90E219AE740068CD52C210C
:10351000684600F094FA6846FEF764F90F218FE7D9
:10352000F8B50C460746FFF764F9E2003D4C002F62
:1035300001D1A31803C33B4B9C1828CC1E1A2C4660
:103540008D4104D20D46C31A364EA5410BE00D46FF
:10355000C61AA5410FD20D46C31AA5410024314E0B
:10356000E4435B1E65410024FB1AAC4103D2B21850
:1035700003C20120F8BD0020F8BDFEB52A4C2B4E39
:10358000E07A2B4D0001305C030000F046FF0F3065
:10359000090B383A3C3E4030304244304648300017
:1035A00024A000E030A000F011FFE07A00018019B3
:1035B0008446C068020E60468168C0680E0E030231
:1035C00033430E0C07041B0E090A00063743084359
:1035D00001933E0E030E0096029260468068020E32
:1035E0000002000A41192DA0521C00F0EFFEE07A03
:1035F000411CE172312801D30020E072FEBD2FA0F2
:10360000D1E738A0CFE743A0CDE74CA0CBE755A04A
:10361000C9E75DA0C7E76AA0C5E777A0C3E783A0B5
:10362000C1E7000068040020780000204801002065
:103630006C0700006F7665722063757272656E7438
:1036400020696E20636861726765206861707065CB
:103650006E65642C207468652074696D65206973DB
:103660003A0D0A21000000006F76657220637572C2
:1036700072656E7420696E20646973636861726735
:10368000652068617070656E65642C2074686520C3
:1036900074696D652069733A0D0A2100253034750F
:1036A0002D253032752D2530327520253032753A72
:1036B000253032753A253032750D0A006F76657205
:1036C00020766F6C746167652068617070656E65E7
:1036D000642C207468652074696D652069733A0DE7
:1036E0000A2100007365636F6E64206F7665722037
:1036F000766F6C746167652068617070656E656473
:103700002C207468652074696D652069733A0D0A10
:103710002100000073686F727420636972637569B9
:10372000742068617070656E65642C207468652013
:1037300074696D652069733A0D0A2100756E6465C0
:103740007220766F6C746167652068617070656E59
:1037500065642C207468652074696D652069733A0E
:103760000D0A21006F766572206C6F6164206861BC
:103770007070656E65642C207468652074696D6571
:103780002069733A0D0A2100686967682074656DC5
:10379000706572617475726520696E20636861720C
:1037A00067652068617070656E65642C207468655B
:1037B0002074696D652069733A0D0A2100000000CC
:1037C000686967682074656D70657261747572658B
:1037D00020696E206469736368617267652068613F
:1037E0007070656E65642C207468652074696D6501
:1037F0002069733A0D0A21006C6F772074656D7033
:103800006572617475726520696E206368617267A4
:10381000652068617070656E65642C207468652031
:1038200074696D652069733A0D0A21006C6F772009
:1038300074656D706572617475726520696E20645F
:1038400069736368617267652068617070656E6531
:10385000642C207468652074696D652069733A0D65
:103860000A21000030B50B46014600202022012429
:1038700009E00D46D5409D4205D31D469540491BA4
:103880002546954040191546521E002DF1DC30BDED
:1038900070B500242546002801DA012440420029A1
:1038A00001DA01254942FFF7DDFFAC4200D040427A
:1038B000002C00D0494270BDF0B51FB40646002070
:1038C00082B005464024019100901BE001992246F8
:1038D0000F46304600F030FC049A059B801A99414F
:1038E00010D310461946224600F016FC361A8F41B6
:1038F0000197224601200021009F00F00DFC38189E
:103900004D4100902046641E0028DFDC019B00989A
:103910002946324607B0F0BDF0B51FB486B000208E
:103920000090019002900698069980B20490079842
:10393000090C02040014114307900027089D099800
:1039400006913E463C4603900398A9B20204000C3F
:10395000039004982D0C154348430021224600F0A3
:10396000DBFBC719714110340E46402CECDB3846A6
:10397000029A00F0D1FB009A019B801800905941F7
:1039800002980191103002904028CCDB00980BB0D7
:10399000F0BD000070B5194C00683C21FFF762FFD4
:1039A00021603C21FFF75EFF61601821FFF75AFF9D
:1039B0000546A1600721001DFFF754FFA1611048D3
:1039C000A90008180F49FFF74DFF443060618808CF
:1039D000E0613B2803D3217D890700D0401C0021F2
:1039E000094B0A462161995C814203D8401A521C56
:1039F0002261F8E7401CE060204670BDB004002062
:103A00006C0B0000B50500004053000003460B435B
:103A10009B0703D009E008C9121F08C0042AFAD284
:103A200003E00B780370401C491C521EF9D270470A
:103A3000D2B201E00270401C491EFBD27047002246
:103A4000F6E710B513460A4604461946FFF7F0FF9D
:103A5000204610BDF8B502464A40D40F42004B0044
:103A600052085B089A4202D20246084611464A00B2
:103A700023D0C30D4A00DDB2120EAD1A202D35DA67
:103A800049020126490AF6058A19002C00D0524243
:103A900020214F1B1146B9402A411018C20D9A42ED
:103AA00021D0002C17D0012D08DCDA05801AD20FA6
:103AB0008019D207DBB200F06BFBF8BDDA05801A83
:103AC000012340001B06C01880185A428018CA0FF4
:103AD0001043490007E04908C2071143DA05801A7C
:103AE00080194008801800F04BFBF8BD61000122EE
:103AF000511A001BF7E70122D2075140AAE7012221
:103B0000D2075040A6E7024670B54A40D30FDB0704
:103B100040002DD04A002AD0010E140E00021202DD
:103B20000919400A520A8418E50104465443000A60
:103B3000120A2E045043A4194219200CC543AA1896
:103B4000120C0125AD03521C521912047F392404B2
:103B500000D0521C104301D44000491EC2B20C06D2
:103B6000C0092018401C4008802A02D003E0002031
:103B700070BD40084000002900DA0020184370BDE5
:103B800070B502464A40D50F40004A00ED07400894
:103B90005208002814D0002A12D0C40DD30D4102BF
:103BA0000120C0055202490A520AE41A09181218E3
:103BB0007D34914201D3641C00E04900002C01DAFD
:103BC000002070BD0023914201D3891A03434008AD
:103BD00049000028F7D100290AD0914202D10121E1
:103BE000C90705E0914201D2012101E00121C94349
:103BF000E005C018401900F0C3FA70BDF0B50746E3
:103C00000846584087B0C00F049048000E4659003F
:103C100040084908BC1A884105D2384631461E463C
:103C200017460B4602465800400810434CD0300D52
:103C3000039040055900400D490D0590401A02902F
:103C4000402872DA18030121000B0905084301908E
:103C500004980092002805D0019952420020884122
:103C600000920190029840210A1A0199009800F0F0
:103C700053FA05460C466B4607CB00F06EFAC019A6
:103C80007141039A0E0D0023D71756401A467A4009
:103C9000164344D0049A002A2DD0029A012A039A8E
:103CA00015DC1205C01A914101263605001C714130
:103CB000D20F059ED2070093019202962A46234610
:103CC00000F0ACFA07B0F0BD38463146FAE7160509
:103CD000224A0F46B218C01AB74101210905001C3B
:103CE0004F4100187F41114618187941E20F1043E7
:103CF0006D19644113E0E2076D0815436408C207BB
:103D00001443039A01261205C01A91413605001C7E
:103D10007141CE07400830434908C01851412A4636
:103D2000234600F06EFACDE7FFE704980122400039
:103D3000C117121A00238B4104983146C417381A50
:103D4000A141EEE730B40124E407634030BC55E7FD
:103D500030B40124E407614030BC4FE70000E0FFCD
:103D6000F0B51FB488B00B99099800244840099910
:103D7000C00F490049080991C0070B9900904900FC
:103D800049080B9109990898A64608431CD00B993D
:103D90000A98084318D0099801244000420D4800B1
:103DA000410D099824050003000B204309900B984E
:103DB0000003000B20430B9050181C4940180022B0
:103DC00001901446104605E0002001460DB0F0BDFC
:103DD000032801DA034600E003239C46C11A0AAE19
:103DE0000AE05F0008ADED5B4F00F75B7D43002705
:103DF000AA187C41491C5B1E6145F2DD410004AB01
:103E00005A522104120C0A43240C401C0828DFDB00
:103E1000019802900099704601910090059B049AC8
:103E20000799069800F0FAF9D0E700000DFCFFFFB3
:103E3000F0B50C465C4085B0E40FE40703944C00F9
:103E40000026640859009446490802460296224317
:103E500021D062460A431ED06200570D4A000E036D
:103E60002303550D012402462C492405781B1B0B06
:103E7000360B401823432643614600901C46501AD7
:103E8000B44103D30098401C009002E092180098BF
:103E90005B41002803DA0020014605B0F0BD002098
:103EA000012109050746864611E064461D46141B9C
:103EB000B54106D36546521BB341744607430C43D4
:103EC000A646CD0740084908284392185B4105469D
:103ED0000D43EAD11046184313D0604619465040AE
:103EE0007140084306D06046101AB34106D2012241
:103EF000002306E000220123DB0702E00122D24377
:103F00005310009874460105381C6141029C039DC2
:103F10000019694100F075F9BFE70000FD030000DA
:103F2000C217C10F504010B54018CA079623002190
:103F300000F02EF910BD10B500229623114600F0B6
:103F400027F910BD0EB5C217C10F5040CA0740185F
:103F50000021054B0293019200910A460B4600F0A6
:103F60005DF903B000BD0000330400000EB5054943
:103F70000291002100910A460B46019100F04EF992
:103F800003B000BD33040000C20F41004002012312
:103F9000400ADB05D207090EC0187F2901DA00208C
:103FA0007047962903DC9623591AC84001E09639D8
:103FB0008840002AF4D0404270474100400201226C
:103FC000400AD205090E80187F2901DA00207047C7
:103FD000962903DC9622511AC840704796398840CA
:103FE0007047000070B5CD0F4A0009030123090B8B
:103FF0001B0519430B4BED070024520D9A4201DAC1
:10400000002070BD074B34339A4203DC9A1A00F04B
:1040100093F802E00449511888402C43F1D0404203
:1040200070BD0000FF030000CDFBFFFF4A00090345
:104030000123090B1B051943094B10B5520D9A4278
:1040400001DA002010BD064B34339A4203DC9A1A81
:1040500000F072F810BD03495118884010BD0000EF
:10406000FF030000CDFBFFFFC20FD2074000400856
:104070000BD0C10D0723DB01C91840020905400A16
:104080001143C208400711437047002001467047A2
:1040900010B5002904DB0124E40740428C4121468D
:1040A000002B04DB1C460123DB075242A3418B4259
:1040B00000D1824210BD000010B5002904DB0124AC
:1040C000E40740428C412146002B04DB1C460123BF
:1040D000DB075242A341994200D1904210BD00003B
:1040E000CB0FDB07490010B5490802460A4307D049
:1040F0000A0D07240903E401090B121B002A01DC45
:10410000002010BDC900440F0C43C100E018D205C7
:10411000801800F035F810BD10B5202A04DB0146E8
:10412000203A9140002010BD914020239C1A034664
:10413000E3401943904010BD10B5202A04DB084627
:10414000203AD040002110BD0B46D340D04020245F
:10415000A21A91400843194610BD10B5202A06DB6B
:10416000CB170846203A1041C1170B4306E00B4617
:104170001341D0402024A21A91400843194610BD93
:10418000002904DA401C490001D140084000704772
:1041900070B40024050C05D11024000402D10029BC
:1041A00021D01124050E01D100020834050F01D1E0
:1041B0000001241D850F01D18000A41C002801DB13
:1041C0004000641C002908D020252E1B0D46F54018
:1041D000A14000D001212943084301061B1B000A0E
:1041E000DB1D02D5002070BC7047DB051818801855
:1041F0000029F8DA401C4900F5D170BC40084000A5
:10420000704710B5002B08DA0024401C6141921859
:104210005B411A4301D14008400010BDF0B51FB406
:1042200082B005460C0003D0084600F0DFF802E03B
:1042300000F0DCF820300246009021462846FFF7C7
:104240006BFF049B059A04460F461843114308432D
:1042500014D0184610431BD0009840210A1A184663
:104260000599FFF769FF05460E46009A05990498DF
:10427000FFF752FF084305D0012004E020463946ED
:1042800007B0F0BD0020C11705430E432C43374350
:1042900000990E986305401A7905E40A00220C4340
:1042A000FD0A0A3002D500200146E9E70105101990
:1042B00069410C9C0D9D00196941FFF7A2FFDFE7E2
:1042C00070B54B005B0803430BD04B005C0D002620
:1042D00033466542B341D417AD1AA34102DB002037
:1042E000014670BD12053018514170BDF8B5054644
:1042F000480040080C46284304D06000184A400D8E
:10430000904201DD2846F8BD15493539884210DC58
:1043100088420BDB290D200308432903014305D004
:10432000E00F1049C00741180020F8BD00200146E9
:10433000F8BD161A4020821B28462146FFF7ECFEE6
:1043400007460091284621463246FFF7F5FE3A46D9
:10435000009BFFF756FF3246FFF7DEFEF8BD000078
:10436000330400000000F03F4A0009030123090B59
:104370001B0519430A4B10B5520D9A4202DA002070
:10438000014610BD064B34339A4203DC9A1AFFF7FC
:10439000D3FE10BD034BD218FFF7BEFE10BD0000C8
:1043A000FF030000CDFBFFFF064C0125064E05E094
:1043B000E36807CC2B430C3C98471034B442F7D346
:1043C000FBF782FE9C530000BC5300000FB410B5F5
:1043D00003A9044B044A029800F05AF910BC08BC27
:1043E00004B01847AD190000900000202021020CF5
:1043F00001D010211046020A01D0104608390209E6
:1044000001D01046091F820801D01046891E4208BB
:1044100001D0881E7047081A704730B47446641E75
:104420002578641CAB4200D21D46635D5B00E31837
:1044300030BC1847F8B504464F1EC800083821188C
:1044400015461E46086849683A4606239A4310D026
:104450002A463346FFF784FC3A46D200083AA318AE
:104460001A687F1E5B68FFF7C9FB06223B46934331
:10447000EED1022F23D0042F11D0062F2FD12A46A0
:104480003346FFF76DFCE36AA26AFFF7B7FB2A46E3
:104490003346FFF765FC636A226AFFF7AFFB2A46E3
:1044A0003346FFF75DFCE369A269FFF7A7FB2A46E5
:1044B0003346FFF755FC63692269FFF79FFB2A46E5
:1044C0003346FFF74DFCE368A268FFF797FB2A46E7
:1044D0003346FFF745FC63682268FFF78FFBF8BDA2
:1044E000002210B5134610460149FFF7A1FC10BD8C
:1044F0000000F03F10B50122FFF7E2FE10BD0022E0
:1045000010B5134610461146FFF792FC10BD02E0AD
:1045100008C8121F08C1002AFAD17047704700204E
:1045200001E001C1121F002AFBD170470149086058
:104530007047000094000020F0B51FB484B00798C5
:104540000699020D014314D04A484B4910184843BC
:1045500005140F9801280E981CD0281A401C00241E
:10456000464E4749009401910290002814DA4742D0
:1045700027E00F98012443A3012808D000210498C4
:104580000F9A84600360C260416009B0F0BD0E986C
:10459000C143F4E74042E2E7074612E0F80707D0DC
:1045A0002246334601990098FFF7DAFB019100900B
:1045B0002246334610461946FFF7D2FB04460E4604
:1045C0007F10002FEAD10298019B0028009A0799DA
:1045D000069802DAFFF7C4FB01E0FFF729FC044666
:1045E0000E460022284BFFF767FD03D80020C0438A
:1045F000014607E00022254B20463146FFF7FEFA30
:10460000FFF7B2FE102409E0002C0ADB0A22002387
:10461000FFF752F9059B30321A55641E02460A43D1
:10462000F2D11122641C059B121B1C190F9B012B3C
:1046300003D0012308430ED10AE0084304D011201F
:104640000E9000200F9084E70E98151A6D1E0BE057
:104650000E98824202DD00236D1C03E0824201DAE3
:1046600000236D1E002BEED004980F998260C1606C
:1046700030C08AE701FCFFFF104D0000000024401D
:104680000000F03F300000000000F0430000E03F79
:10469000FFB597B00646002518E2252877D10024FB
:1046A0002746FD49049400E00443761C327801203B
:1046B000203A90400842F7D130782A280ED00222C2
:1046C000307801463039092916D804990A2359430C
:1046D000303940181443761C0490F1E7189802C84A
:1046E00004911890002904DA012040030443484251
:1046F000049002200443761C30782E2814D1042024
:1047000004437078761C2A2809D11898761C80C832
:10471000189009E00A214F43303FC719761C3078C2
:10472000014630390929F5D930786C2810D006DCDB
:104730004C281AD068280ED06A2817D104E07428B3
:1047400013D07A2812D110E00120400504430CE078
:104750000121090501E0032109050C43717881421B
:1047600003D1012000052418761C761C30781190A6
:1047700066280BD013DC58287DD009DC00287BD0BC
:104780004528F6D04628F4D047281AD1A5E118E0EC
:10479000632835D0642870D0652812D19DE1702837
:1047A0006CD008DC6728F1D069287BD06E280DD04A
:1047B0006F2806D1BAE073282ED0752871D07828DA
:1047C00059D01A9A199990476D1C7EE16002400FEA
:1047D000022809D003280DD00428189801680DD0AC
:1047E0000D60001D189070E11898EA1701680D60BF
:1047F0004A60F6E7189801680D80F2E70D70F0E75F
:1048000018986A4601781172001D189000205072A5
:1048100002A80090012005E0189802C81890002016
:104820000091C04361070DD5002101E00199491CA9
:104830000191B94212DA8142F8DB009A515C0029F9
:10484000F4D10BE0002101E00199491C0191814262
:10485000FADB019A0099895C0029F5D10199049845
:104860001A9B471A21463846199A00F097FA01997F
:10487000401945180BE04FE02CE113E04EE00098A2
:1048800000990078491C00911A9A1999904701984B
:10489000401E0190401CF2D1214638461A9B199ABD
:1048A00010E137E00A200021009001916002410FE1
:1048B000022907D0189A01CA1892C21794460329F0
:1048C00008D00AE01898C01DC108C90005C9189190
:1048D000944607E000B2C2179446042902D140B2C0
:1048E000C1178C4600226146944506DA0A4600212B
:1048F000404291418C462D2102E0210504D52B2117
:104900006A461173012103E0E10701D02021F7E796
:10491000029155E00A200AE0102008E010200090E3
:104920000021042004430191082703E0082000210E
:10493000019100906002410F022907D0189A01CA24
:10494000189200229446032908D008E01898C01D48
:10495000C108C90005C91891944603E080B2042932
:1049600000D1C0B200210291210729D511997029E7
:1049700006D0009A1021019B4A401A4305D00EE050
:1049800040216A461173012108E06146014306D0C7
:1049900030216A4611731199517302210291009AD4
:1049A0000821019B4A401A430AD16146014301D1C3
:1049B000610705D530216A46117301217F1E0291DE
:1049C0001199582904D035A10E910DA90D910DE032
:1049D00037A1F9E76146019B009AFEF76DFF0E9B38
:1049E0008C469B5C0D9A521E0D92137061460143DA
:1049F000F0D10D9805A9081A20300190600703D561
:104A000001200004844300E001270198874201DD72
:104A1000381A00E000200199009041180298091806
:104A20000498401A0490E00306D421461A9B199A70
:104A3000049800F0B3F94519002706E003A81A9A74
:104A4000C05D199990476D1C7F1C02988742F5DB69
:104A5000E0030CD521461A9B199A049800F09EF9A0
:104A6000451904E01A9A3020199990476D1C009955
:104A7000481E00900029F5DC08E00D980D9900789B
:104A8000491C0D911A9A199990476D1C0199481E5D
:104A900001900029F1DC63E1092801003031323353
:104AA000343536373839616263646566000000006A
:104AB0003031323334353637383941424344454654
:104AC0000000000000F05AF94519761C30780028E3
:104AD00000D0E2E528461BB0F0BD600700D40627F1
:104AE0001898C01DC108C90048680A680831C30F7A
:104AF000DB071891190001D09CA108E0210501D520
:104B00009BA104E0E10701D09AA100E09AA1430033
:104B100011985B08109165280CD006DC452809D057
:104B200046281DD0472841D141E0662818D0672883
:104B30003CD13CE00021112F01DB112000E0781C6A
:104B40000191009008A911A8FFF7F6FC13990591AF
:104B50000021119A15927F1C12980197009150E044
:104B60000120C00703900120019008A9009711A817
:104B7000FFF7E2FC139A149905920022119B009210
:104B800012981593059A0192002901D0104602E06F
:104B9000791C40180190381A01D5019804E0404270
:104BA000401E0090781C0190C01B029043E0012F32
:104BB00000DA01270021112F01DD112000E0384625
:104BC0000191009008A911A8FFF7B6FC139905916F
:104BD000119A0021129815920091019721070CD487
:104BE0000599B94201DB019900E00191012904DD39
:104BF000159A491E515C302906D0B84201DA011DD0
:104C000005DA0121029115E00199491EEDE700281E
:104C100005DC0099411800910199091A03E0019AF5
:104C2000411C914200DD01910099401A401C029004
:104C30000120C0070390200706D402990198814201
:104C400002DB0020C043029000206946C87707AF0E
:104C5000012103980337C907884224D0022011900C
:104C60002B201290039800280CDA404203902D204C
:104C7000129007E00A210398FEF7F4FD30317F1E01
:104C8000039039701199481E11900029F2DC0398A5
:104C90000028EFD1791E1298087030782021084042
:104CA0004530BF1E387006A8C01BC01D0390109869
:104CB0000078002800D00120019941180298C017FF
:104CC0000918039809180498401A401E0490E0033C
:104CD00006D421461A9B199A049800F05FF84519EA
:104CE00010980078002803D01A9A199990476D1CE3
:104CF000E00324D521461A9B199A049800F04EF837
:104D000045191CE00098002807DB009905988842A7
:104D100003DD1598405C199901E0199930201A9A21
:104D2000904700986D1C401C00900298401E029015
:104D3000002804D11A9A2E20199990476D1C0199C8
:104D4000481E01900029DDDC05E038781A9A7F1CA6
:104D5000199990476D1C0399481E03900029F4DCB3
:104D600021461A9B199A0498ACE600002D00000019
:104D70002B0000002000000000000000F8B50446F1
:104D800000251E461746880404D405E03946202035
:104D9000B0476D1C641EF9D52846F8BDFFB5044622
:104DA000002581B01E46C80301D5302700E020272A
:104DB000880404D505E038460399B0476D1C641E8D
:104DC000F9D5284605B0F0BDF0B5C54A00248FB02E
:104DD00091420ADA4B005B08934206D801254A004B
:104DE0006D05EA4205D1002803D0FFF783FB0FB021
:104DF000F0BD01252D05A94219DA034308D0002989
:104E000010DA0120FFF792FBFFF779FB0FB0F0BD3E
:104E10000220FFF78BFBFFF763FB0122D207514013
:104E20000FB0F0BD3524E4433622FFF749FA0A15E6
:104E3000AC4B1219D4180A03120BAB49AB4B5618E2
:104E40002E403146594011430192321512190B92EE
:104E50000022FEF777FF019A0446921C1003A44E2D
:104E6000000B0D467E44032860D2204673683268EA
:104E7000FFF70EF91CD10B98002815D0FFF762F848
:104E800004460E469B4A9C4BFEF76AFF0D460746BA
:104E90009A4A9B4B20463146FEF762FF3A462B4624
:104EA000FEF7ACFE0FB0F0BD716830680FB0F0BD1A
:104EB000944A954B20462946FEF752FF0022934B19
:104EC000FEF746FF06460F4622462B461046194679
:104ED000FEF746FF32463B46FEF742FF06460B987A
:104EE0000F4600281DD0FFF72DF8824A824B05910E
:104EF0000490FEF735FF32463B46FEF729FF224677
:104F00002B46FEF71FFF04460D467C4A7C4B059955
:104F10000498FEF725FF22462B46FEF713FF0FB03D
:104F2000F0BD0B46324620462946C4E0012300224C
:104F30009B072046FEF762FE02460B4620462946A6
:104F4000FEF776FF06460F460B98FEF7FBFF32464C
:104F50003B460591049010461946FEF701FF099162
:104F60000C906B490198099B421800920C9A1946C3
:104F70001046FEF7F5FE024607910A906549019832
:104F80000B1A6548019303217844079BFFF752FAF7
:104F9000079B0A9AFEF7E4FE0E905F480D910421EC
:104FA0007844079B0A9AFFF745FA099B0C9AFEF78B
:104FB000D7FE019B009A1A4300920D9B0E9AFEF7B2
:104FC0001DFE009A01910C90002A4DDD0022D24373
:104FD00020462946FFF774F922462B46FEF7C0FE0D
:104FE00000910A900B9800282BD0424A424B059919
:104FF0000498FEF7B5FE07910E90019B0C9A00995C
:105000000A98FEF7FBFD32463B46FEF7A9FE079BDA
:105010000E9AFEF7F3FD009B0A9AFEF799FE2246D0
:105020002B46FEF78FFE04460D46344A344B059955
:105030000498FEF795FE22462B46FEF783FE0FB03E
:10504000F0BD019B0C9A0A98FEF7D8FD32463B460C
:10505000FEF786FE009B0A9AFEF77AFE22462B4652
:10506000FEF776FE0FB0F0BD0B98002827D0214A3E
:10507000214B05990498FEF773FE07910090204696
:105080002946019B0C9AFEF75DFE32463B46FEF731
:1050900067FE079B009AFEF755FE22462B46FEF759
:1050A00051FE04460D46154A154B05990498FEF726
:1050B00057FE22462B46FEF745FE0FB0F0BD0B46CD
:1050C000204629460C9AFEF73DFE32463B46FEF747
:1050D00047FE22462B46FEF73BFE0FB0F0BD000018
:1050E0000000F07F01FCFFFF645F09000000F03F5B
:1050F000E8040000763C7935EF39EA3D0000E0FE37
:10510000422EE63F555555555555D53F0000E03FD9
:1051100086EBF9FF51B806007C030000F0B513B42C
:1051200006460199FFF7E2F804460D4602460B4693
:1051300030460199FEF706FE064601981B4B0F46C6
:1051400000280CDA00223046FEF7A2FF0CD900221C
:10515000174B30463946FEF7AFFF1DD214E0002250
:105160003046FEF795FF08D20022124B2046294612
:10517000FEF7E8FD04460D460EE000220C4B3046DB
:105180003946FEF799FF07D800220A4B20462946E8
:10519000FEF734FD04460D46019A69004908D20F16
:1051A000D2072046114303B0F0BD00000000E0BF6D
:1051B0000000E03F0000F03F00010100010000019D
:1051C00001000001000101000100000100010100D7
:1051D00000010100010000010100000100010100C7
:1051E00000010100010000010001010001000001B7
:1051F00001000001000101000100000100010100A7
:105200000001010001000001000101000100000196
:105210000100000100010100000101000100000186
:105220000100000100010100010000010001010076
:105230000001010001000001010000010001010066
:105240000001010001000001000101000100000156
:105250000100000100010100000101000100000146
:105260000100000100010100010000010001010036
:105270000001010001000001000101000100000126
:105280000100000100010100010000010001010016
:105290000001010001000001010000010001010006
:1052A00000010100010000010001010001000001F6
:1052B0000100000100010100344E203534000135A9
:1052C00000000000341901350000000034400135B1
:1052D0000000000034700135000000003471013519
:1052E00000000000344C0235000000003446063552
:1052F00000000000000000000000000034430335FF
:10530000000000000000000004FA97999999D93F25
:10531000AF788E1DC571CC3F9FC678D0099AC33F28
:10532000935555555555E53F599322942449D23FFD
:10533000DE03CB966446C73F44523EDF12F1C23FC4
:105340001F1D1F1E1F1E1F1F1E1F1E1F00000000EF
:1053500000000000000000000D0A746F74616C5FB3
:10536000763A252E31662C207265616C5F763A257F
:105370002E31662C204D61785F763A25642C204DC5
:10538000696E5F763A25642C736F633A2025642C2E
:10539000637572723A2025640D0A0000BC53000048
:1053A00000000020980000000E450000545400004A
:1053B00098000020480600001E45000000093D003E
:1053C00000093D0000093D00000000000000000051
:1053D00000000000000000000000000000000000CD
:1053E00000000000000000000000000000000000BD
:1053F00000000000000000000000000000000000AD
:10540000000000000000000000000000000000009C
:10541000FF0F00000000000000000000000000007E
:10542000000000000000000000000000000000007C
:10543000000000000000000000000000000000006C
:10544000000000000000000000000000000000005C
:045450000000000058
:04000005000000C136
:00000001FF
